:020000040800F2
:10380000780D0020CD380008094800082D47000831
:1038100000000000000000000000000000000000A8
:1038200000000000000000000000000053480008F5
:103830000000000000000000514800085548000842
:10384000DF38000800000000DF380008DF3800081B
:10385000DF380008DF380008DF380008DF380008EC
:1038600000000000DF380008DF380008DF380008FB
:10387000DF380008DF380008DF38000800000000EB
:10388000DF380008DF380008DF380008DF380008BC
:10389000DF380008DF380008DF380008DF380008AC
:1038A000DF380008DF380008DF380008DF3800089C
:1038B000DF380008E54C00080348854600F04EF864
:1038C00000480047ED4E0008780D0020044880476E
:1038D00004480047FEE7FEE7FEE7FEE7FEE7FEE7F7
:1038E000C5480008B938000830B50B46014600202D
:1038F0002022012409E00D46D5409D4205D31D46F6
:103900009540491B2546954040191546521E002DED
:10391000F1DC30BD10B5202A04DB0846203AD04047
:10392000002110BD0B46D340D0402024A21A914064
:103930000843194610BDD2B201E00270401C491E76
:10394000FBD270470022F6E710B513460A4604463C
:103950001946FFF7F0FF204610BD0000064C012578
:10396000064E05E0E36807CC2B430C3C9847103427
:10397000B442F7D3FFF7A4FF84510008A451000814
:1039800006490020C861064801690422114301610B
:10399000016940221143016170470000580900206D
:1039A00000200240064A0021D16106490A6902232B
:1039B0001A430A6148610869402210430861704750
:1039C000580900200020024010B5054B0022DA61A2
:1039D000044A1369012423431361018010BD0000D0
:1039E000580900200020024010B50B4A0020D16881
:1039F000CB060A4904D5C86902231843C8611020C0
:103A0000D3685B0705D5CB6901242343CB6104212F
:103A10000843D06010BD000000200240580900207B
:103A200070B5054600F096F90646104C0AE0681C91
:103A300008D0002D04D000F08DF9801BA84201D9D8
:103A4000032070BDE068C007F1D1E068800601D5B1
:103A50002020E060E068C00602D4E068400703D59B
:103A6000FFF7C2FF012070BD002070BD00200240A2
:103A700070B50024014620314A78022A03D004217F
:103A80008163012416E0026813680E25AB431360BE
:103A9000026813685B085B0013600122056C134623
:103AA000AB40C56B6B604A7000220A70416B002905
:103AB00000D08847204670BDF8B5054623480F461C
:103AC000017E012601290BD0012101762868204CB6
:103AD000012807D02046FFF7A3FF002813D030E0CD
:103AE0000220F8BD2046FFF79BFF002829D1FFF7F1
:103AF00047FF2046FFF794FF064616480169042257
:103B0000914301611DE00020C04338606C6812E001
:103B10002046FFF747FF0E48FFF782FF06460D4895
:103B2000026902218A430261002E01D03C6008E054
:103B30000120C0022418A868C10268680818A042C1
:103B4000E6D80248002101763046F8BD5809002029
:103B500050C3000000200240034801698022114345
:103B6000016100207047000000200240F0B51FB442
:103B700007461A480024017E15461E46012907D033
:103B8000012101761648FFF74BFF002803D020E003
:103B9000022005B0F0BD012F02D0022F00D0042773
:103BA000220128463146FFF7B5FE81B20198620036
:103BB0001018FFF709FF0A48FFF732FF09490A69A1
:103BC000520852000A61002803D1641CE4B2BC42CE
:103BD000E6D3024900220A76DBE7000058090020FC
:103BE00050C300000020024005480169090605D5C0
:103BF000044941600449416000207047012070473A
:103C00000020024023016745AB89EFCDF8B50023C2
:103C10008DE001249C40A44622407DD04C68022CBB
:103C200001D0122C0CD1DC08A40027183C6A5D07D7
:103C3000ED0E0F26AE40B4430E69AE4026433E6201
:103C400005685E000324B4400F79A543BF07BF0F8A
:103C5000B7402F4307604D68012D05D0022D03D0DA
:103C6000112D01D0122D0ED18568CF68A543B74024
:103C70002F43876047686546AF430D79ED06ED0F2A
:103C80009D403D434560C568A5438C68B4402C43C6
:103C9000C4604C68E40049D5284CA5690126354329
:103CA000A561A4699D0834400094254CAD002F19EE
:103CB000BC689D072E0F0F25B540AC430925ED06C6
:103CC000A84201D100250FE01E4DA84201D10125D7
:103CD0000AE01D4DA84201D1022505E01B4DA84276
:103CE00001D1032500E00525B5402543BD60184CF2
:103CF00025684E689543F60300D515432560656831
:103D00004E689543B60300D515436560A5684E68B7
:103D10009543F60202D500E008E01543A560E5688A
:103D20004E689543B60200D51543E5605B1C0A68F2
:103D30001446DC4000D06CE7F8BD000000100240E3
:103D4000000001400004004800080048000C004842
:103D5000000401400148006870470000D4000020C2
:103D600002480168491C016070470000D40000202F
:103D700010B506480168102211430160002000F0D0
:103D800007F800F017F8002010BD000000200240E6
:103D900010B5044600F0CEF87D21C900FFF7A4FD60
:103DA00000F0D2FA00222146501E00F029F800202F
:103DB00010BD000008B50C488169012211438161E2
:103DC00080691040002200901146501F00F018F842
:103DD00000221146901E00F013F800221146501EDA
:103DE00000F00EF808BD000000100240C106C90E28
:103DF00001208840014908607047000000E100E0B0
:103E000010B500F003FD10BDF8B5054644480E4658
:103E10000068C007C00FB0420AD241480168490893
:103E20004900314301600068C007C00FB0425CD157
:103E300028783C4C800705D56068F0218843A96844
:103E4000084360602878C0073FD06868012813D015
:103E50002168022813D08907002946DA6168890899
:103E6000890001436160FFF775FF69680746012912
:103E70000DD0022917D024E021688903ECE78901DD
:103E8000EAE7FFF767FFC11B2748814217D8606840
:103E90000007800F0128F4D117E0FFF75BFFC11B7B
:103EA000214881420BD860680007800F0228F4D1B6
:103EB0000BE0FFF74FFFC11B1B48814201D90320D4
:103EC000F8BD60680007800FF3D115480168C90785
:103ED000C90FB1420BD9016849084900314301605B
:103EE0000068C007C00FB04201D00120F8BD28789B
:103EF000400706D56068072109028843E96808433E
:103F0000606000F02DF86168084A0906090F515CED
:103F1000C840074908600020FFF73AFF0020F8BDBD
:103F20000020024000100240881300006C5100087D
:103F3000C00000200148006870470000C000002059
:103F40000448054900684968044A4905490F515C1D
:103F5000C8407047C0000020001002407C5100089B
:103F600010B511A30FCB88B06C460FC412A30FCBB2
:103F70000FC415494A680C20134603401348042B0C
:103F80000FD0082B0DD193021B0F6C46E45CC96A5D
:103F900004AB0907090FD203595C920FFFF7A4FC89
:103FA000604308B010BD00000203040506070809BD
:103FB0000A0B0C0D0E0F1010010203040506070872
:103FC000090A0B0C0D0E0F100010024000127A00AF
:103FD000FEB504460078D24DC00749D06868000796
:103FE000800F012820D068680007800F022804D1C4
:103FF0006868C003800F022816D0012062680004A0
:10400000012A18D08100002A01D0052A17D02A6879
:1040100082432A60286888432860606800281BD093
:10402000FFF798FE064613E02868800320D56068F5
:10403000002876D01CE0296801432960EDE72A6852
:104040000A432A60F7E7FFF785FE801B642869D8DA
:1040500028688003F7D50BE0FFF77CFE064604E0F6
:10406000FFF778FE801B6428F1D828688003F7D416
:1040700020780126800700283DDA68680007800F55
:1040800013D068680007800F022804D16868C00355
:10409000800F012809D0E068002828681CD0304330
:1040A0002860FFF757FE07460BE0286880070BD50E
:1040B000E068012835D107E0FFF74CFEC01B02285D
:1040C000C5D828688007F7D52868F8218843216972
:1040D000C900084328600EE0400840002860FFF750
:1040E00039FE074604E0FFF735FEC01B0228AED8B4
:1040F00028688007F7D42078000723D5E0690028D6
:10410000686A10D030436862FFF724FE074604E077
:10411000FFF720FEC01B022899D8686A8007F7D5F0
:1041200010E0FAE0A4E0400840006862FFF712FEE9
:10413000074604E0FFF70EFEC01B022887D8686A16
:104140008007F7D4207804274007002860DA002091
:104150000190E869C00008D4E969B8060143E96143
:10416000E96901400120009101906E480168C9058C
:1041700011D40168821511430160FFF7EBFD009037
:1041800005E0FFF7E7FD0099401A642870D86548FC
:104190000068C005F5D5A06801280AD0002801D024
:1041A000052810D0286A400840002862286AB843D1
:1041B00001E0286A30432862A068002812D0FFF787
:1041C000C9FD00900AE0286A38432862F1E7FFF74A
:1041D000C1FD0099411A5448814249D8286A800794
:1041E000F5D50DE0FFF7B6FD009006E0FFF7B2FD54
:1041F0000099411A4C4881423AD8286A8007F5D480
:104200000198002804D0E969012000078143E96191
:104210002078C00635D5606901280CD0401D686B38
:1042200023D038436863686B400840006863FFF739
:1042300091FD064622E0686B38436863686B304343
:104240006863FFF787FD064604E0FFF783FD801BE8
:1042500002285BD8686B8007F7D5686BF821884324
:10426000A169C900084368630BE0B8436863F4E7D9
:104270004CE0FFF76FFD801B022847D8686B800772
:10428000F7D4206A002846D069680907890F0229F7
:1042900043D0012636060228286805D0B04328609E
:1042A000FFF758FD044633E0B0432860FFF752FDA6
:1042B000074604E0FFF74EFDC01B022826D82868F9
:1042C0008001F7D4E86AE16A000900010843E86266
:1042D000616AA06A084369687B22D203914308435C
:1042E0006860286830432860FFF734FD044604E026
:1042F000FFF730FD001B022808D828688001F7D599
:1043000009E0FFF727FD001B022801D90320FEBDAD
:1043100028688001F5D40020FEBD0120FEBD00000C
:10432000001002400070004088130000042204497D
:104330000428086902D09043086170471043FBE7E6
:1043400000E000E070470000094910B5401E8842B7
:1043500001D9012010BD074C60610321081F00F046
:1043600055FA0020A06107202061002010BD000048
:10437000FFFFFF0000E000E010B5FFF7E3FF10BD16
:1043800070470000F8B503680446D96918680D073E
:104390002D0F07D18A0605D5820603D5204600F0E9
:1043A00053FBF8BD9A68002D64D0D507ED0FFF26AA
:1043B000213606402E435DD0CE0706D0C60504D573
:1043C00001261E62E36E3343E3668F070223042651
:1043D000002F06DAD70704D027683B62E76E374321
:1043E000E7664F0706D5D20704D022681662E26E50
:1043F0001A43E2660A0709D5202202402A4305D063
:10440000236808221A62E36E1343E366E26E002A11
:10441000C7D0890604D5800602D5204600F014FBDB
:10442000E06E000703D42068806840061CD5204653
:1044300000F0EEFA20688168490611D581684022B3
:1044400091438160606E00280AD012494163606E1A
:10445000FFF70EFB0028A4D0606E416B8847F8BDC3
:104460002046FFF78DFFF8BD2046FFF789FF0020AB
:10447000E066F8BD0A0605D5020603D5204600F021
:10448000CDFBF8BD4906FCD54006FAD5204600F024
:10449000CEFAF8BDFD49000870B5040005D02546E8
:1044A0006035687A002802D006E0012070BD002047
:1044B0002872204600F026F82420687220680168DF
:1044C000490849000160204600F0FCFA0128EDD0BF
:1044D000606A002802D0204600F022FA2068416875
:1044E0000122D202914341602068816808229143F1
:1044F000816020680168012211430160204600F0BC
:1045000074FA70BD00B50068124987B088421FD1A7
:104510001148C269012189040A43C261C069084087
:10452000059003208002009002200190002002905C
:10453000032003900420049069460848FFF766FBB7
:10454000002211461D20FFF75BFC1D20FFF74EFCEB
:1045500007B000BD004800400010024000040048C1
:10456000FFB5074604466037B87A83B00E46202868
:1045700071D1002E0CD00598002809D00120A16827
:104580000003814207D12069002804D1F00702D03E
:10459000012007B0F0BD387A01285CD001203872C4
:1045A0000020E0662220B872FFF7D4FB0290254677
:1045B000403505982883059868830122A068120376
:1045C000FF21904204D12069002815D123480AE038
:1045D0007F2200280BD001210907884204D12069DD
:1045E000002807D03F20A883A88B019023E02069F2
:1045F000002801D0AA83F7E7A983F5E7688B401E5E
:10460000688306980090002220212046029B00F03B
:1046100038FB002801D00320BBE70120A16800037C
:10462000814202D1206900280DD02068818C019838
:1046300001403170761C688B0028DFD12020B872D1
:1046400000203872A5E72068808C019908403080EE
:10465000B61CF0E7FFE702209BE70000FF01000027
:104660007047FFB5064604466036707A83B00D4643
:10467000202858D1002D0CD00598002809D0012001
:10468000A1680003814207D12069002804D1E8070E
:1046900002D0012007B0F0BD307A012843D00120BC
:1046A00030720020E06621207072FFF753FB01900A
:1046B00027464037059838820598788218E0788A2E
:1046C000401E788206980090002280212046019B9F
:1046D00000F0D7FA002818D10120A1680003814218
:1046E00002D12069002812D02168287808856D1C25
:1046F000788A0028E3D106980090002240212046C5
:10470000019B00F0BEFA002808D00320C2E72888E9
:104710002168C005C00D0885AD1CE9E72020707236
:1047200000203072B6E70220B4E77047FEE70000D1
:1047300008B50C484269012189050A434261426972
:104740000A400092426909110A43426142690A40E3
:104750000092426949100A43426140690840009052
:1047600008BD00000010024010B50D480B49016063
:10477000E1214902416000218160C16001618161E4
:10478000C1610C22016242614162FFF785FE00288F
:1047900003D0442103A000F005FB10BD00480040F9
:1047A000DC0000202E2E2F5372632F7573617274FC
:1047B0002E63000018B5104A104B002081008C18A1
:1047C00024685C50401C3028F8D300210C48C943B1
:1047D00081628169012211438161816911400091E7
:1047E0000021816207480168890889000160016829
:1047F00003221143016018BD0038000800000020AA
:104800000010024000000140704700008307FF22B3
:10481000DB0E9A408907090E994000280BDA000741
:10482000000F0838830808489B001818C369934391
:104830000B43C3617047830804489B001B1818682A
:10484000904308431860704700ED00E000E400E08A
:104850007047704710B5FFF783FAFFF78DFD10BD65
:1048600030B591B001200190009000040990000142
:10487000022500240A9008950B946846FFF7A8FBD0
:10488000002800D0FEE707200C900E9401210D9522
:104890000F940CA8FFF7B8FA002800D0FEE7FFF746
:1048A00049FB7D21C900FFF71FF8FFF74DFD0420EC
:1048B000FFF73CFD00221146501EFFF7A1FA11B090
:1048C00030BD0000134801680122114301604168B6
:1048D000114A114041600168104A114001600168AD
:1048E000012292049143016041683F2212049143E6
:1048F0004160C16A09090901C162016BFF221432DA
:1049000091430163416B4908490041630021816083
:1049100070470000001002400CB8FF08FFFFF6FED1
:1049200010B5818CC90707D001684A6801235B0470
:104930009A43836A1A434A60818C890707D50168C4
:104940004A6801231B049A43C36A1A434A60818C54
:10495000490707D501684A6801239B049A43036B02
:104960001A434A60818C090707D501684A68012308
:10497000DB039A43436B1A434A60818CC90607D50F
:104980000268916801231B039943836B194391606B
:10499000818C890607D501688A6801235B039A43E5
:1049A000C36B1A438A60818C490612D503685A6822
:1049B00001210905046C8A4322435A60026C8A4231
:1049C00007D10268516803235B059943436C19437F
:1049D0005160818C090607D501684A680123DB0410
:1049E000806C9A4302434A6010BD0021C1662022B8
:1049F00060304272827201720846704710B5406A98
:104A00000022014640314A834A82FFF7B9FC10BDBB
:104A100001680A68FF2321339A430A6001688A68A3
:104A2000520852008A60202160308172704710B5B0
:104A300001680A6840239A430A60202269210A54C7
:104A4000FFF773FE002010BD70B5024640320346EA
:104A50006033948B9D7A0168222D05D088690822E5
:104A600010438861022070BD898C01268568360359
:104A7000B54202D10569002D0BD02140446D651C63
:104A800045652170518B491E0904090C518307D0DB
:104A900015E0456D21402980416D891C4165F1E794
:104AA00001680A68FF242134A2430A6001688A6809
:104AB000520852008A6020219972FFF7D1FD002030
:104AC00070BD0000F8B504462369A268E5691A4381
:104AD0006369102000212B431A4323680E461D688A
:104AE000444F3D4015431D6023685A6803252D033C
:104AF000AA43E5682A435A60236AA26925681A43D3
:104B0000AB680B273F02BB431343AB603A4A2568AF
:104B1000954210D1394A126B9207920F1AD0012A8E
:104B200005D0022A05D0032A15D1022013E0042063
:104B300011E008200FE0324A95420BD0314A9542ED
:104B400008D0314A954205D0304A954202D0304AC9
:104B5000954200D100200122E369D203934224D17F
:104B600000280CD002280DD0042813D0082817D014
:104B700001260A0912010807400F10432FE0FFF732
:104B8000DFF909E06168234A48088018FEF7ACFEA7
:104B900081B2EEE7FFF7E4F9616840004A08F4E704
:104BA0006168012248081204EFE7002808D00228B3
:104BB00009D004280BD0082814D001263046F8BDAF
:104BC000FFF7BEF905E06168134A48080CE0FFF7FB
:104BD000C7F961684A088018FEF786FE80B221682E
:104BE000C860EBE7616848088018FEF77DFE80B278
:104BF000E860E3E7F369FFEF00380140001002408E
:104C00000044004000480040004C0040005000407C
:104C1000001401400024F40000127A006921095CAC
:104C2000212901D00220704702464032518A0029D2
:104C300012D0012381681B03994202D10169002926
:104C400015D0C16C4B1CC364006809780185508A7B
:104C5000401E50820020704701680A6880239A43F2
:104C60000A6000680168402211430160F2E7C16CEC
:104C700003680988C905C90D1985C16C891CC164FF
:104C8000E5E7FFB581B017460E4604460A9D1DE0D4
:104C9000681C1BD0002D05D0FFF75CF80499401A62
:104CA000A84213D920680168FF22A1329143016014
:104CB0002068816849084900816020206034607262
:104CC000A07200202072032005B0F0BD2068C169E9
:104CD0003046884304D00020B842D9D00020F3E702
:104CE0000120F9E710B50649012008700346024685
:104CF00004490548FFF734FC0348FFF743FB10BDA8
:104D0000C4000020C5000020DC000020F7B584B0FE
:104D10000646FEF769FF1F491F48FEF713FE1F4CAA
:104D20001D4FA7601E4D666006E00168A06802C0C6
:104D30006168091D6160A0606068A842F5D3002029
:104D4000009001200290019614496846FEF7B4FED7
:104D500000280DD1059806993954A760666012E0C5
:104D6000A068002302680220FEF700FF002804D09C
:104D7000FEF7F2FE002007B0F0BD6068001D606025
:104D8000A068001DA0606168A942E9D3FEF7E4FEB7
:104D90000120F0E70C0800004C010020C8000020B2
:104DA00000D00308FEE700000FB410B503A9044BC0
:104DB000044A029800F017F810BC08BC04B0184769
:104DC000B94E0008D800002002E008C8121F08C130
:104DD000002AFAD170477047002001E001C1121F7C
:104DE000002AFBD17047FFB581B00546002706E0D9
:104DF00025280AD0049A039990476D1C7F1C2878B7
:104E00000028F5D1384605B0F0BD002269786D1C48
:104E100010462E2913D1697804226D1C2A2909D144
:104E200002996D1C01C9029109E00A2358433038E8
:104E300008186D1C29780B46303B092BF5D92B78C7
:104E4000002BDFD0632B07D0732B10D0049A1846A9
:104E5000039990477F1C2DE002996C460B782370D4
:104E6000091D0291002161706E46012104E0029942
:104E700040C902910021C94352070AD5002400E02D
:104E8000641C84420DDA8C42FADB325D002AF7D1D1
:104E900007E0002400E0641C8C42FCDB305D00284D
:104EA000F9D13F1904E03078049A761C03999047B1
:104EB000641EF8D26D1CA2E713B5C823012269460F
:104EC0000548FFF7CEFB002803D0092103A0FFF718
:104ED00069FF00981CBD0000DC0000202E2E5C53F2
:104EE00072635C7072696E74662E6300FEF740FF39
:104EF000FFF760FCFFF7B4FCFFF71AFCFFF734FC88
:104F00002AA0FFF751FF36A0FFF74EFF42A0FFF7A0
:104F10004BFF4EA0FFF748FF53A0FFF745FF58A0F7
:104F2000FFF742FF5EA0FFF73FFF6448006801689B
:104F3000202211430160624E01220D213046FFF70D
:104F4000E5FE604C002520780128FCD125706078B2
:104F5000312808D0322822D0332822D05AA0FFF797
:104F600023FF6570EFE7617861A0FFF71DFF5A220C
:104F700000213046FFF7CAFE00221E213046FFF70F
:104F8000C5FE012212213046FFF7C0FEBFF34F8F4E
:104F900061496048C860BFF34F8F00BFFDE75FA065
:104FA00000E068A0FFF700FFCDE700000D0A0D0A42
:104FB0002A2A2A2A2A2A2A2A2A2A20546869732075
:104FC0006973204170706C696361746F6E20636FE8
:104FD0006465202A2A2A2A2A2A2A2A2A2A0A0D002D
:104FE0000D0A0D0A2A2A2A2A2A2A2A2A2A2A205679
:104FF000657273696F6E20352E30204E676179209F
:1050000032362F30362F32303137202A2A2A2A2AB8
:105010002A2A2A2A2A0A0D000D0A0D0A2A2A2A2AD1
:105020002A2A2A2A2A2A2044656D6F2046756C6C2C
:105030002073797374656D2055415254202A2A2AB1
:105040002A2A2A2A2A2A2A0A0D000000576169748E
:10505000696E672063686172616374657220456E72
:105060007465723A0A0D00002D202731273A204C32
:105070006F6164204D61696E20636F64650D0A0085
:105080002D202732273A204C6F6164204C6F676FC8
:105090002050726F64756374696F6E0D0A000000B2
:1050A0002D202733273A204C6F6164204C6F676FA7
:1050B00020437573746F6D65720D0A00DC0000206B
:1050C00000C80308C40000200D0A0D0A2A2A2A2A53
:1050D0002A20456E746572204F746865722043689B
:1050E000617261637465722A2A2A2A2A0A0D0000F5
:1050F0000D0A0D0A2A2A2A2A2A4C6F6164204D6162
:10510000696E20436F64652A2A2A2A2A3A20256379
:105110000A0D00000400FA0500ED00E00D0A0D0A7A
:105120002A2A2A2A2A204C6F6164204C6F676F203C
:1051300050726F64756374696F6E202A2A2A2A2A56
:105140000A0D00000D0A0D0A2A2A2A2A2A204C6F6D
:105150006164204C6F676F20437573746F6D657267
:10516000202A2A2A2A2A0A0D000000000000000036
:105170000000000001020304060708090000000007
:1051800001020304A451000800000020DC0000001C
:10519000C84D000880520008DC0000209C0C000074
:1051A000D84D0008000000000000000000000000D2
:1051B00000000000000000000000000000000000EF
:1051C00000000000000000000000000000000000DF
:1051D00000000000000000000000000000000000CF
:1051E00000000000000000000000000000000000BF
:1051F00000000000000000000000000000000000AF
:10520000000000000000000000000000000000009E
:10521000000000000000000000000000000000008E
:10522000000000000000000000000000000000007E
:10523000000000000000000000000000000000006E
:10524000000000000000000000000000000000005E
:10525000000000000000000000000000000000004E
:105260000000000000127A000000000000000000B2
:10527000000000000000000000000000000000002E
:04000005080038B9FE
:00000001FF
